{
  "contractName": "BOND",
  "abi": [
    {
      "inputs": [
        {
          "name": "_bondHolder",
          "type": "address"
        },
        {
          "name": "_amount",
          "type": "uint256"
        },
        {
          "name": "_fedToken",
          "type": "address"
        }
      ],
      "payable": false,
      "stateMutability": "nonpayable",
      "type": "constructor"
    },
    {
      "constant": false,
      "inputs": [],
      "name": "releaseAmount",
      "outputs": [],
      "payable": false,
      "stateMutability": "nonpayable",
      "type": "function"
    },
    {
      "constant": false,
      "inputs": [],
      "name": "getBalance",
      "outputs": [],
      "payable": false,
      "stateMutability": "nonpayable",
      "type": "function"
    },
    {
      "constant": true,
      "inputs": [],
      "name": "getAddress",
      "outputs": [
        {
          "name": "",
          "type": "address"
        }
      ],
      "payable": false,
      "stateMutability": "view",
      "type": "function"
    }
  ],
  "bytecode": "0x608060405234801561001057600080fd5b50604051606080610553833981018060405281019080805190602001909291908051906020019092919080519060200190929190505050826000806101000a81548173ffffffffffffffffffffffffffffffffffffffff021916908373ffffffffffffffffffffffffffffffffffffffff1602179055508160018190555080600260006101000a81548173ffffffffffffffffffffffffffffffffffffffff021916908373ffffffffffffffffffffffffffffffffffffffff16021790555033600460006101000a81548173ffffffffffffffffffffffffffffffffffffffff021916908373ffffffffffffffffffffffffffffffffffffffff160217905550505050610431806101226000396000f300608060405260043610610057576000357c0100000000000000000000000000000000000000000000000000000000900463ffffffff16806312065fe01461005c57806338cc483114610073578063c062dc5f146100ca575b600080fd5b34801561006857600080fd5b506100716100e1565b005b34801561007f57600080fd5b5061008861023f565b604051808273ffffffffffffffffffffffffffffffffffffffff1673ffffffffffffffffffffffffffffffffffffffff16815260200191505060405180910390f35b3480156100d657600080fd5b506100df610247565b005b600260009054906101000a900473ffffffffffffffffffffffffffffffffffffffff16600360006101000a81548173ffffffffffffffffffffffffffffffffffffffff021916908373ffffffffffffffffffffffffffffffffffffffff160217905550600360009054906101000a900473ffffffffffffffffffffffffffffffffffffffff1673ffffffffffffffffffffffffffffffffffffffff1663f8b2cb4f306040518263ffffffff167c0100000000000000000000000000000000000000000000000000000000028152600401808273ffffffffffffffffffffffffffffffffffffffff1673ffffffffffffffffffffffffffffffffffffffff168152602001915050602060405180830381600087803b15801561020157600080fd5b505af1158015610215573d6000803e3d6000fd5b505050506040513d602081101561022b57600080fd5b810190808051906020019092919050505050565b600030905090565b600260009054906101000a900473ffffffffffffffffffffffffffffffffffffffff16600360006101000a81548173ffffffffffffffffffffffffffffffffffffffff021916908373ffffffffffffffffffffffffffffffffffffffff160217905550600360009054906101000a900473ffffffffffffffffffffffffffffffffffffffff1673ffffffffffffffffffffffffffffffffffffffff16636c12ed2830600460009054906101000a900473ffffffffffffffffffffffffffffffffffffffff166001546040518463ffffffff167c0100000000000000000000000000000000000000000000000000000000028152600401808473ffffffffffffffffffffffffffffffffffffffff1673ffffffffffffffffffffffffffffffffffffffff1681526020018373ffffffffffffffffffffffffffffffffffffffff1673ffffffffffffffffffffffffffffffffffffffff1681526020018281526020019350505050602060405180830381600087803b1580156103c757600080fd5b505af11580156103db573d6000803e3d6000fd5b505050506040513d60208110156103f157600080fd5b8101908080519060200190929190505050505600a165627a7a72305820f1596ed41e0671c654b385c33fba72f45d8bf11b332c06a2dfc42419e3632c540029",
  "source": "pragma solidity ^0.4.24;\n\nimport \"openzeppelin-solidity/contracts/token/ERC20/MintableToken.sol\";\n/**\n * @title FedToken\n * @dev ERC20 compatible token that responds to price increases and keeps the value\n * of the token stable\n */\ncontract FEDToken is MintableToken {\n    string public name = \"FEDToken\";\n    string public symbol = \"FED\";\n    uint8 public decimals = 9;\n    uint public INITIAL_SUPPLY = 500000000;\n    uint public price=100;\n    bool public needMint=false;\n    BOND[] bonds;\n    constructor() public {\n        totalSupply_ = INITIAL_SUPPLY;\n        balances[msg.sender] = INITIAL_SUPPLY;\n    }  \n     /**\n     * @dev transfers value of bond back to owner\n     * @param _numberOfBonds the number of bonds to be released\n     */\n    function releaseBond(uint _numberOfBonds) public{\n     \n        for(uint i = 0 ; i<_numberOfBonds; i++) {\n            bonds[i].releaseAmount();\n            delete bonds[i];\n        }\n    }\n      /**\n     * @dev mints more tokens, called for every token holder\n     * @param _amount amount of tokens to be minted to\n     * @param _to address to mint the tokens to\n     */\n    function mintToDecrease(uint _amount,address _to) public {\n        mint(_to,_amount); //mint requires that the owner is calling it\n\n    }\n     /**\n     * @dev adds bonds that store tokens\n     * @param _amount amount of tokens to be stored\n     * @param _bondholder the address that holds the bond\n     */\n    function addBond(uint _amount, address _bondholder) public{\n        BOND bond = new BOND(_bondholder,_amount,address(this));\n        transferFrom2(_bondholder,bond.getAddress(),_amount);\n        bonds.push(bond);\n    }\n    function getBondLength() public view returns(uint){\n        return bonds.length;\n    }\n    \n    function getBalance(address _address) public view returns(uint){\n        return balances[_address];\n    }\n    function transferFrom2(address _from, address _to,uint256 _value) public returns(bool)\n    {   \n        approve(_to,_value);\n        transferFrom(_from,_to,_value);\n    }\n    function getBond(uint _bondnumber) public view returns(BOND){\n        return bonds[_bondnumber];\n    }\n\n\n}\ncontract BOND {\n    address bondHolder;\n    uint amount;\n    address fedTokenAddress;\n    FEDToken Fed;\n    address owner;\n    constructor(address _bondHolder, uint _amount,address _fedToken) public{\n        bondHolder = _bondHolder;\n        amount = _amount;\n        fedTokenAddress = _fedToken;\n        owner = msg.sender;\n\n    } \n     /**\n     * @dev releases the tokens in the bond contract\n     */\n    function releaseAmount() public {\n        Fed = FEDToken(fedTokenAddress);\n        Fed.transferFrom2(address(this),owner,amount); \n    }\n    function getBalance() public {\n        Fed = FEDToken(fedTokenAddress);\n        Fed.getBalance(address(this));\n    }\n    function getAddress() public view returns(address){\n        return address(this);\n    }\n\n \n\n}",
  "sourcePath": "/home/satya/dev/FEDToken/contracts/FEDToken.sol",
  "compiler": {
    "name": "solc",
    "version": "0.4.24+commit.e67f0147.Emscripten.clang"
  },
  "schemaVersion": "2.0.1",
  "updatedAt": "2018-10-03T02:36:55.474Z"
}