{
  "contractName": "BOND",
  "abi": [
    {
      "inputs": [
        {
          "name": "_bondHolder",
          "type": "address"
        },
        {
          "name": "_amount",
          "type": "uint256"
        },
        {
          "name": "_fedToken",
          "type": "address"
        }
      ],
      "payable": false,
      "stateMutability": "nonpayable",
      "type": "constructor"
    },
    {
      "constant": false,
      "inputs": [],
      "name": "releaseAmount",
      "outputs": [],
      "payable": false,
      "stateMutability": "nonpayable",
      "type": "function"
    }
  ],
  "bytecode": "0x608060405234801561001057600080fd5b50604051606080610310833981018060405281019080805190602001909291908051906020019092919080519060200190929190505050826000806101000a81548173ffffffffffffffffffffffffffffffffffffffff021916908373ffffffffffffffffffffffffffffffffffffffff1602179055508160018190555080600260006101000a81548173ffffffffffffffffffffffffffffffffffffffff021916908373ffffffffffffffffffffffffffffffffffffffff16021790555033600460006101000a81548173ffffffffffffffffffffffffffffffffffffffff021916908373ffffffffffffffffffffffffffffffffffffffff1602179055505050506101ee806101226000396000f300608060405260043610610041576000357c0100000000000000000000000000000000000000000000000000000000900463ffffffff168063c062dc5f14610046575b600080fd5b34801561005257600080fd5b5061005b61005d565b005b600260009054906101000a900473ffffffffffffffffffffffffffffffffffffffff16600360006101000a81548173ffffffffffffffffffffffffffffffffffffffff021916908373ffffffffffffffffffffffffffffffffffffffff160217905550600360009054906101000a900473ffffffffffffffffffffffffffffffffffffffff1673ffffffffffffffffffffffffffffffffffffffff1663b7760c8f6001546000809054906101000a900473ffffffffffffffffffffffffffffffffffffffff166040518363ffffffff167c0100000000000000000000000000000000000000000000000000000000028152600401808381526020018273ffffffffffffffffffffffffffffffffffffffff1673ffffffffffffffffffffffffffffffffffffffff16815260200192505050600060405180830381600087803b1580156101a857600080fd5b505af11580156101bc573d6000803e3d6000fd5b505050505600a165627a7a72305820c457f34c100287ab929a5343a8d1264d7a184487c25544411a5de372844e381a0029",
  "source": "pragma solidity ^0.4.24;\r\n\r\nimport \"openzeppelin-solidity/contracts/token/ERC20/MintableToken.sol\";\r\n/**\r\n * @title FedToken\r\n * @dev ERC20 compatible token that responds to price increases and keeps the value\r\n * of the token stable\r\n */\r\ncontract FEDToken is MintableToken {\r\n    string public name = \"FEDToken\";\r\n    string public symbol = \"FED\";\r\n    uint8 public decimals = 2;\r\n    uint public INITIAL_SUPPLY = 500000000;\r\n    //status of how much money accounts want to put as bonds\r\n    uint public price=100;\r\n    bool public needMint=false;\r\n    BOND[] bonds;\r\n    constructor() public {\r\n        totalSupply_ = INITIAL_SUPPLY;\r\n        balances[msg.sender] = INITIAL_SUPPLY;\r\n    }  \r\n     /**\r\n     * @dev transfers value of bond back to owner\r\n     * @param _numberOfBonds the number of bonds to be released\r\n     */\r\n    function releaseBond(uint _numberOfBonds) public{\r\n        require(_numberOfBonds > 0);\r\n        require(bonds.length != 0);\r\n        for(uint i = 0 ; i<_numberOfBonds; i++) {\r\n            bonds[i].releaseAmount();\r\n            delete bonds[i];\r\n        }\r\n\r\n    }\r\n      /**\r\n     * @dev mints more tokens, called for every token holder\r\n     * @param _amount amount of tokens to be minted to\r\n     * @param _to address to mint the tokens to\r\n     */\r\n    function mintToDecrease(uint _amount,address _to) public {\r\n        mint(_to,_amount); //mint requires that the owner is calling it\r\n\r\n    }\r\n     /**\r\n     * @dev adds bonds that store tokens\r\n     * @param _amount amount of tokens to be stored\r\n     * @param _bondholder the address that holds the bond\r\n     */\r\n    function addBond(uint _amount, address _bondholder) public{\r\n        BOND bond = new BOND(_bondholder,_amount,address(this));\r\n        bonds.push(bond);\r\n        balances[_bondholder] = balances[_bondholder] - _amount;\r\n\r\n    }\r\n    function getBondLength() public view returns(uint){\r\n        return bonds.length;\r\n    }\r\n    function transfer(uint _amount, address _address) public{\r\n        transfer(_amount, _address);\r\n\r\n    }\r\n\r\n}\r\ncontract BOND {\r\n    address bondHolder;\r\n    uint amount;\r\n    address fedTokenAddress;\r\n    FEDToken Fed;\r\n    address owner;\r\n    constructor(address _bondHolder, uint _amount,address _fedToken) public{\r\n        bondHolder = _bondHolder;\r\n        amount = _amount;\r\n        fedTokenAddress = _fedToken;\r\n        owner = msg.sender;\r\n\r\n    } \r\n     /**\r\n     * @dev releases the tokens in the bond contract\r\n     */\r\n    function releaseAmount() public {\r\n        Fed = FEDToken(fedTokenAddress);\r\n        Fed.transfer(amount,bondHolder);\r\n    }\r\n\r\n}",
  "sourcePath": "C:\\dev\\FedToken\\contracts\\fedtoken.sol",
  "compiler": {
    "name": "solc",
    "version": "0.4.24+commit.e67f0147.Emscripten.clang"
  },
  "schemaVersion": "2.0.1",
  "updatedAt": "2018-09-05T04:29:50.712Z"
}