{
  "contractName": "FEDToken",
  "abi": [
    {
      "constant": true,
      "inputs": [],
      "name": "mintingFinished",
      "outputs": [
        {
          "name": "",
          "type": "bool"
        }
      ],
      "payable": false,
      "stateMutability": "view",
      "type": "function"
    },
    {
      "constant": true,
      "inputs": [],
      "name": "name",
      "outputs": [
        {
          "name": "",
          "type": "string"
        }
      ],
      "payable": false,
      "stateMutability": "view",
      "type": "function"
    },
    {
      "constant": false,
      "inputs": [
        {
          "name": "_spender",
          "type": "address"
        },
        {
          "name": "_value",
          "type": "uint256"
        }
      ],
      "name": "approve",
      "outputs": [
        {
          "name": "",
          "type": "bool"
        }
      ],
      "payable": false,
      "stateMutability": "nonpayable",
      "type": "function"
    },
    {
      "constant": true,
      "inputs": [],
      "name": "totalSupply",
      "outputs": [
        {
          "name": "",
          "type": "uint256"
        }
      ],
      "payable": false,
      "stateMutability": "view",
      "type": "function"
    },
    {
      "constant": true,
      "inputs": [],
      "name": "needMint",
      "outputs": [
        {
          "name": "",
          "type": "bool"
        }
      ],
      "payable": false,
      "stateMutability": "view",
      "type": "function"
    },
    {
      "constant": false,
      "inputs": [
        {
          "name": "_from",
          "type": "address"
        },
        {
          "name": "_to",
          "type": "address"
        },
        {
          "name": "_value",
          "type": "uint256"
        }
      ],
      "name": "transferFrom",
      "outputs": [
        {
          "name": "",
          "type": "bool"
        }
      ],
      "payable": false,
      "stateMutability": "nonpayable",
      "type": "function"
    },
    {
      "constant": true,
      "inputs": [],
      "name": "INITIAL_SUPPLY",
      "outputs": [
        {
          "name": "",
          "type": "uint256"
        }
      ],
      "payable": false,
      "stateMutability": "view",
      "type": "function"
    },
    {
      "constant": true,
      "inputs": [],
      "name": "decimals",
      "outputs": [
        {
          "name": "",
          "type": "uint8"
        }
      ],
      "payable": false,
      "stateMutability": "view",
      "type": "function"
    },
    {
      "constant": false,
      "inputs": [
        {
          "name": "_to",
          "type": "address"
        },
        {
          "name": "_amount",
          "type": "uint256"
        }
      ],
      "name": "mint",
      "outputs": [
        {
          "name": "",
          "type": "bool"
        }
      ],
      "payable": false,
      "stateMutability": "nonpayable",
      "type": "function"
    },
    {
      "constant": false,
      "inputs": [
        {
          "name": "_spender",
          "type": "address"
        },
        {
          "name": "_subtractedValue",
          "type": "uint256"
        }
      ],
      "name": "decreaseApproval",
      "outputs": [
        {
          "name": "",
          "type": "bool"
        }
      ],
      "payable": false,
      "stateMutability": "nonpayable",
      "type": "function"
    },
    {
      "constant": true,
      "inputs": [
        {
          "name": "_owner",
          "type": "address"
        }
      ],
      "name": "balanceOf",
      "outputs": [
        {
          "name": "",
          "type": "uint256"
        }
      ],
      "payable": false,
      "stateMutability": "view",
      "type": "function"
    },
    {
      "constant": false,
      "inputs": [],
      "name": "renounceOwnership",
      "outputs": [],
      "payable": false,
      "stateMutability": "nonpayable",
      "type": "function"
    },
    {
      "constant": false,
      "inputs": [],
      "name": "finishMinting",
      "outputs": [
        {
          "name": "",
          "type": "bool"
        }
      ],
      "payable": false,
      "stateMutability": "nonpayable",
      "type": "function"
    },
    {
      "constant": true,
      "inputs": [],
      "name": "owner",
      "outputs": [
        {
          "name": "",
          "type": "address"
        }
      ],
      "payable": false,
      "stateMutability": "view",
      "type": "function"
    },
    {
      "constant": true,
      "inputs": [],
      "name": "symbol",
      "outputs": [
        {
          "name": "",
          "type": "string"
        }
      ],
      "payable": false,
      "stateMutability": "view",
      "type": "function"
    },
    {
      "constant": true,
      "inputs": [],
      "name": "price",
      "outputs": [
        {
          "name": "",
          "type": "uint256"
        }
      ],
      "payable": false,
      "stateMutability": "view",
      "type": "function"
    },
    {
      "constant": false,
      "inputs": [
        {
          "name": "_spender",
          "type": "address"
        },
        {
          "name": "_addedValue",
          "type": "uint256"
        }
      ],
      "name": "increaseApproval",
      "outputs": [
        {
          "name": "",
          "type": "bool"
        }
      ],
      "payable": false,
      "stateMutability": "nonpayable",
      "type": "function"
    },
    {
      "constant": true,
      "inputs": [
        {
          "name": "_owner",
          "type": "address"
        },
        {
          "name": "_spender",
          "type": "address"
        }
      ],
      "name": "allowance",
      "outputs": [
        {
          "name": "",
          "type": "uint256"
        }
      ],
      "payable": false,
      "stateMutability": "view",
      "type": "function"
    },
    {
      "constant": false,
      "inputs": [
        {
          "name": "_newOwner",
          "type": "address"
        }
      ],
      "name": "transferOwnership",
      "outputs": [],
      "payable": false,
      "stateMutability": "nonpayable",
      "type": "function"
    },
    {
      "inputs": [],
      "payable": false,
      "stateMutability": "nonpayable",
      "type": "constructor"
    },
    {
      "anonymous": false,
      "inputs": [
        {
          "indexed": true,
          "name": "to",
          "type": "address"
        },
        {
          "indexed": false,
          "name": "amount",
          "type": "uint256"
        }
      ],
      "name": "Mint",
      "type": "event"
    },
    {
      "anonymous": false,
      "inputs": [],
      "name": "MintFinished",
      "type": "event"
    },
    {
      "anonymous": false,
      "inputs": [
        {
          "indexed": true,
          "name": "previousOwner",
          "type": "address"
        }
      ],
      "name": "OwnershipRenounced",
      "type": "event"
    },
    {
      "anonymous": false,
      "inputs": [
        {
          "indexed": true,
          "name": "previousOwner",
          "type": "address"
        },
        {
          "indexed": true,
          "name": "newOwner",
          "type": "address"
        }
      ],
      "name": "OwnershipTransferred",
      "type": "event"
    },
    {
      "anonymous": false,
      "inputs": [
        {
          "indexed": true,
          "name": "owner",
          "type": "address"
        },
        {
          "indexed": true,
          "name": "spender",
          "type": "address"
        },
        {
          "indexed": false,
          "name": "value",
          "type": "uint256"
        }
      ],
      "name": "Approval",
      "type": "event"
    },
    {
      "anonymous": false,
      "inputs": [
        {
          "indexed": true,
          "name": "from",
          "type": "address"
        },
        {
          "indexed": true,
          "name": "to",
          "type": "address"
        },
        {
          "indexed": false,
          "name": "value",
          "type": "uint256"
        }
      ],
      "name": "Transfer",
      "type": "event"
    },
    {
      "constant": false,
      "inputs": [
        {
          "name": "_newprice",
          "type": "uint256"
        }
      ],
      "name": "setPrice",
      "outputs": [],
      "payable": false,
      "stateMutability": "nonpayable",
      "type": "function"
    },
    {
      "constant": false,
      "inputs": [
        {
          "name": "_numberOfBonds",
          "type": "uint256"
        }
      ],
      "name": "releaseBond",
      "outputs": [],
      "payable": false,
      "stateMutability": "nonpayable",
      "type": "function"
    },
    {
      "constant": false,
      "inputs": [
        {
          "name": "_amount",
          "type": "uint256"
        },
        {
          "name": "_to",
          "type": "address"
        }
      ],
      "name": "mintToDecrease",
      "outputs": [],
      "payable": false,
      "stateMutability": "nonpayable",
      "type": "function"
    },
    {
      "constant": false,
      "inputs": [
        {
          "name": "_amount",
          "type": "uint256"
        },
        {
          "name": "_bondholder",
          "type": "address"
        }
      ],
      "name": "addBond",
      "outputs": [],
      "payable": false,
      "stateMutability": "nonpayable",
      "type": "function"
    },
    {
      "constant": true,
      "inputs": [],
      "name": "getBondLength",
      "outputs": [
        {
          "name": "",
          "type": "uint256"
        }
      ],
      "payable": false,
      "stateMutability": "view",
      "type": "function"
    },
    {
      "constant": false,
      "inputs": [
        {
          "name": "_to",
          "type": "address"
        },
        {
          "name": "_value",
          "type": "uint256"
        }
      ],
      "name": "transfer",
      "outputs": [
        {
          "name": "",
          "type": "bool"
        }
      ],
      "payable": false,
      "stateMutability": "nonpayable",
      "type": "function"
    },
    {
      "constant": false,
      "inputs": [
        {
          "name": "_amount",
          "type": "uint256"
        },
        {
          "name": "_address",
          "type": "address"
        }
      ],
      "name": "transfer",
      "outputs": [],
      "payable": false,
      "stateMutability": "nonpayable",
      "type": "function"
    }
  ],
  "bytecode": "0x60806040526000600360146101000a81548160ff0219169083151502179055506040805190810160405280600881526020017f464544546f6b656e000000000000000000000000000000000000000000000000815250600490805190602001906200006c929190620001a2565b506040805190810160405280600381526020017f464544000000000000000000000000000000000000000000000000000000000081525060059080519060200190620000ba929190620001a2565b506002600660006101000a81548160ff021916908360ff160217905550631dcd650060075560646008556000600960006101000a81548160ff0219169083151502179055503480156200010c57600080fd5b5033600360006101000a81548173ffffffffffffffffffffffffffffffffffffffff021916908373ffffffffffffffffffffffffffffffffffffffff1602179055506007546001819055506007546000803373ffffffffffffffffffffffffffffffffffffffff1673ffffffffffffffffffffffffffffffffffffffff1681526020019081526020016000208190555062000251565b828054600181600116156101000203166002900490600052602060002090601f016020900481019282601f10620001e557805160ff191683800117855562000216565b8280016001018555821562000216579182015b8281111562000215578251825591602001919060010190620001f8565b5b50905062000225919062000229565b5090565b6200024e91905b808211156200024a57600081600090555060010162000230565b5090565b90565b61228680620002616000396000f300608060405260043610610154576000357c0100000000000000000000000000000000000000000000000000000000900463ffffffff16806305d2035b1461015957806306fdde0314610188578063095ea7b31461021857806318160ddd1461027d5780632363990b146102a857806323b872dd146102d75780632ff2e9dc1461035c578063313ce5671461038757806334706ecf146103b857806340c10f19146103e5578063661884631461044a57806370a08231146104af578063715018a6146105065780637d64bcb41461051d5780638da5cb5b1461054c57806391b7f5ed146105a357806395d89b41146105d0578063a035b1fe14610660578063a9059cbb1461068b578063b7760c8f146106f0578063d73dd6231461073d578063dc34334a146107a2578063dd62ed3e146107cd578063e55490e514610844578063e7b82c3414610891578063f2fde38b146108de575b600080fd5b34801561016557600080fd5b5061016e610921565b604051808215151515815260200191505060405180910390f35b34801561019457600080fd5b5061019d610934565b6040518080602001828103825283818151815260200191508051906020019080838360005b838110156101dd5780820151818401526020810190506101c2565b50505050905090810190601f16801561020a5780820380516001836020036101000a031916815260200191505b509250505060405180910390f35b34801561022457600080fd5b50610263600480360381019080803573ffffffffffffffffffffffffffffffffffffffff169060200190929190803590602001909291905050506109d2565b604051808215151515815260200191505060405180910390f35b34801561028957600080fd5b50610292610ac4565b6040518082815260200191505060405180910390f35b3480156102b457600080fd5b506102bd610ace565b604051808215151515815260200191505060405180910390f35b3480156102e357600080fd5b50610342600480360381019080803573ffffffffffffffffffffffffffffffffffffffff169060200190929190803573ffffffffffffffffffffffffffffffffffffffff16906020019092919080359060200190929190505050610ae1565b604051808215151515815260200191505060405180910390f35b34801561036857600080fd5b50610371610e9c565b6040518082815260200191505060405180910390f35b34801561039357600080fd5b5061039c610ea2565b604051808260ff1660ff16815260200191505060405180910390f35b3480156103c457600080fd5b506103e360048036038101908080359060200190929190505050610eb5565b005b3480156103f157600080fd5b50610430600480360381019080803573ffffffffffffffffffffffffffffffffffffffff16906020019092919080359060200190929190505050610fe9565b604051808215151515815260200191505060405180910390f35b34801561045657600080fd5b50610495600480360381019080803573ffffffffffffffffffffffffffffffffffffffff169060200190929190803590602001909291905050506111cf565b604051808215151515815260200191505060405180910390f35b3480156104bb57600080fd5b506104f0600480360381019080803573ffffffffffffffffffffffffffffffffffffffff169060200190929190505050611461565b6040518082815260200191505060405180910390f35b34801561051257600080fd5b5061051b6114a9565b005b34801561052957600080fd5b506105326115ae565b604051808215151515815260200191505060405180910390f35b34801561055857600080fd5b50610561611676565b604051808273ffffffffffffffffffffffffffffffffffffffff1673ffffffffffffffffffffffffffffffffffffffff16815260200191505060405180910390f35b3480156105af57600080fd5b506105ce6004803603810190808035906020019092919050505061169c565b005b3480156105dc57600080fd5b506105e56116a6565b6040518080602001828103825283818151815260200191508051906020019080838360005b8381101561062557808201518184015260208101905061060a565b50505050905090810190601f1680156106525780820380516001836020036101000a031916815260200191505b509250505060405180910390f35b34801561066c57600080fd5b50610675611744565b6040518082815260200191505060405180910390f35b34801561069757600080fd5b506106d6600480360381019080803573ffffffffffffffffffffffffffffffffffffffff1690602001909291908035906020019092919050505061174a565b604051808215151515815260200191505060405180910390f35b3480156106fc57600080fd5b5061073b60048036038101908080359060200190929190803573ffffffffffffffffffffffffffffffffffffffff16906020019092919050505061196a565b005b34801561074957600080fd5b50610788600480360381019080803573ffffffffffffffffffffffffffffffffffffffff16906020019092919080359060200190929190505050611978565b604051808215151515815260200191505060405180910390f35b3480156107ae57600080fd5b506107b7611b74565b6040518082815260200191505060405180910390f35b3480156107d957600080fd5b5061082e600480360381019080803573ffffffffffffffffffffffffffffffffffffffff169060200190929190803573ffffffffffffffffffffffffffffffffffffffff169060200190929190505050611b81565b6040518082815260200191505060405180910390f35b34801561085057600080fd5b5061088f60048036038101908080359060200190929190803573ffffffffffffffffffffffffffffffffffffffff169060200190929190505050611c08565b005b34801561089d57600080fd5b506108dc60048036038101908080359060200190929190803573ffffffffffffffffffffffffffffffffffffffff169060200190929190505050611c17565b005b3480156108ea57600080fd5b5061091f600480360381019080803573ffffffffffffffffffffffffffffffffffffffff169060200190929190505050611da1565b005b600360149054906101000a900460ff1681565b60048054600181600116156101000203166002900480601f0160208091040260200160405190810160405280929190818152602001828054600181600116156101000203166002900480156109ca5780601f1061099f576101008083540402835291602001916109ca565b820191906000526020600020905b8154815290600101906020018083116109ad57829003601f168201915b505050505081565b600081600260003373ffffffffffffffffffffffffffffffffffffffff1673ffffffffffffffffffffffffffffffffffffffff16815260200190815260200160002060008573ffffffffffffffffffffffffffffffffffffffff1673ffffffffffffffffffffffffffffffffffffffff168152602001908152602001600020819055508273ffffffffffffffffffffffffffffffffffffffff163373ffffffffffffffffffffffffffffffffffffffff167f8c5be1e5ebec7d5bd14f71427d1e84f3dd0314c0f7b2291e5b200ac8c7c3b925846040518082815260200191505060405180910390a36001905092915050565b6000600154905090565b600960009054906101000a900460ff1681565b60008060008573ffffffffffffffffffffffffffffffffffffffff1673ffffffffffffffffffffffffffffffffffffffff168152602001908152602001600020548211151515610b3057600080fd5b600260008573ffffffffffffffffffffffffffffffffffffffff1673ffffffffffffffffffffffffffffffffffffffff16815260200190815260200160002060003373ffffffffffffffffffffffffffffffffffffffff1673ffffffffffffffffffffffffffffffffffffffff168152602001908152602001600020548211151515610bbb57600080fd5b600073ffffffffffffffffffffffffffffffffffffffff168373ffffffffffffffffffffffffffffffffffffffff1614151515610bf757600080fd5b610c48826000808773ffffffffffffffffffffffffffffffffffffffff1673ffffffffffffffffffffffffffffffffffffffff16815260200190815260200160002054611e0990919063ffffffff16565b6000808673ffffffffffffffffffffffffffffffffffffffff1673ffffffffffffffffffffffffffffffffffffffff16815260200190815260200160002081905550610cdb826000808673ffffffffffffffffffffffffffffffffffffffff1673ffffffffffffffffffffffffffffffffffffffff16815260200190815260200160002054611e2290919063ffffffff16565b6000808573ffffffffffffffffffffffffffffffffffffffff1673ffffffffffffffffffffffffffffffffffffffff16815260200190815260200160002081905550610dac82600260008773ffffffffffffffffffffffffffffffffffffffff1673ffffffffffffffffffffffffffffffffffffffff16815260200190815260200160002060003373ffffffffffffffffffffffffffffffffffffffff1673ffffffffffffffffffffffffffffffffffffffff16815260200190815260200160002054611e0990919063ffffffff16565b600260008673ffffffffffffffffffffffffffffffffffffffff1673ffffffffffffffffffffffffffffffffffffffff16815260200190815260200160002060003373ffffffffffffffffffffffffffffffffffffffff1673ffffffffffffffffffffffffffffffffffffffff168152602001908152602001600020819055508273ffffffffffffffffffffffffffffffffffffffff168473ffffffffffffffffffffffffffffffffffffffff167fddf252ad1be2c89b69c2b068fc378daa952ba7f163c4a11628f55a4df523b3ef846040518082815260200191505060405180910390a3600190509392505050565b60075481565b600660009054906101000a900460ff1681565b60008082111515610ec557600080fd5b6000600a8054905014151515610eda57600080fd5b600090505b81811015610fe557600a81815481101515610ef657fe5b9060005260206000200160009054906101000a900473ffffffffffffffffffffffffffffffffffffffff1673ffffffffffffffffffffffffffffffffffffffff1663c062dc5f6040518163ffffffff167c0100000000000000000000000000000000000000000000000000000000028152600401600060405180830381600087803b158015610f8457600080fd5b505af1158015610f98573d6000803e3d6000fd5b50505050600a81815481101515610fab57fe5b9060005260206000200160006101000a81549073ffffffffffffffffffffffffffffffffffffffff02191690558080600101915050610edf565b5050565b6000600360009054906101000a900473ffffffffffffffffffffffffffffffffffffffff1673ffffffffffffffffffffffffffffffffffffffff163373ffffffffffffffffffffffffffffffffffffffff1614151561104757600080fd5b600360149054906101000a900460ff1615151561106357600080fd5b61107882600154611e2290919063ffffffff16565b6001819055506110cf826000808673ffffffffffffffffffffffffffffffffffffffff1673ffffffffffffffffffffffffffffffffffffffff16815260200190815260200160002054611e2290919063ffffffff16565b6000808573ffffffffffffffffffffffffffffffffffffffff1673ffffffffffffffffffffffffffffffffffffffff168152602001908152602001600020819055508273ffffffffffffffffffffffffffffffffffffffff167f0f6798a560793a54c3bcfe86a93cde1e73087d944c0ea20544137d4121396885836040518082815260200191505060405180910390a28273ffffffffffffffffffffffffffffffffffffffff16600073ffffffffffffffffffffffffffffffffffffffff167fddf252ad1be2c89b69c2b068fc378daa952ba7f163c4a11628f55a4df523b3ef846040518082815260200191505060405180910390a36001905092915050565b600080600260003373ffffffffffffffffffffffffffffffffffffffff1673ffffffffffffffffffffffffffffffffffffffff16815260200190815260200160002060008573ffffffffffffffffffffffffffffffffffffffff1673ffffffffffffffffffffffffffffffffffffffff16815260200190815260200160002054905080831015156112e1576000600260003373ffffffffffffffffffffffffffffffffffffffff1673ffffffffffffffffffffffffffffffffffffffff16815260200190815260200160002060008673ffffffffffffffffffffffffffffffffffffffff1673ffffffffffffffffffffffffffffffffffffffff16815260200190815260200160002081905550611375565b6112f48382611e0990919063ffffffff16565b600260003373ffffffffffffffffffffffffffffffffffffffff1673ffffffffffffffffffffffffffffffffffffffff16815260200190815260200160002060008673ffffffffffffffffffffffffffffffffffffffff1673ffffffffffffffffffffffffffffffffffffffff168152602001908152602001600020819055505b8373ffffffffffffffffffffffffffffffffffffffff163373ffffffffffffffffffffffffffffffffffffffff167f8c5be1e5ebec7d5bd14f71427d1e84f3dd0314c0f7b2291e5b200ac8c7c3b925600260003373ffffffffffffffffffffffffffffffffffffffff1673ffffffffffffffffffffffffffffffffffffffff16815260200190815260200160002060008873ffffffffffffffffffffffffffffffffffffffff1673ffffffffffffffffffffffffffffffffffffffff168152602001908152602001600020546040518082815260200191505060405180910390a3600191505092915050565b60008060008373ffffffffffffffffffffffffffffffffffffffff1673ffffffffffffffffffffffffffffffffffffffff168152602001908152602001600020549050919050565b600360009054906101000a900473ffffffffffffffffffffffffffffffffffffffff1673ffffffffffffffffffffffffffffffffffffffff163373ffffffffffffffffffffffffffffffffffffffff1614151561150557600080fd5b600360009054906101000a900473ffffffffffffffffffffffffffffffffffffffff1673ffffffffffffffffffffffffffffffffffffffff167ff8df31144d9c2f0f6b59d69b8b98abd5459d07f2742c4df920b25aae33c6482060405160405180910390a26000600360006101000a81548173ffffffffffffffffffffffffffffffffffffffff021916908373ffffffffffffffffffffffffffffffffffffffff160217905550565b6000600360009054906101000a900473ffffffffffffffffffffffffffffffffffffffff1673ffffffffffffffffffffffffffffffffffffffff163373ffffffffffffffffffffffffffffffffffffffff1614151561160c57600080fd5b600360149054906101000a900460ff1615151561162857600080fd5b6001600360146101000a81548160ff0219169083151502179055507fae5184fba832cb2b1f702aca6117b8d265eaf03ad33eb133f19dde0f5920fa0860405160405180910390a16001905090565b600360009054906101000a900473ffffffffffffffffffffffffffffffffffffffff1681565b8060088190555050565b60058054600181600116156101000203166002900480601f01602080910402602001604051908101604052809291908181526020018280546001816001161561010002031660029004801561173c5780601f106117115761010080835404028352916020019161173c565b820191906000526020600020905b81548152906001019060200180831161171f57829003601f168201915b505050505081565b60085481565b60008060003373ffffffffffffffffffffffffffffffffffffffff1673ffffffffffffffffffffffffffffffffffffffff16815260200190815260200160002054821115151561179957600080fd5b600073ffffffffffffffffffffffffffffffffffffffff168373ffffffffffffffffffffffffffffffffffffffff16141515156117d557600080fd5b611826826000803373ffffffffffffffffffffffffffffffffffffffff1673ffffffffffffffffffffffffffffffffffffffff16815260200190815260200160002054611e0990919063ffffffff16565b6000803373ffffffffffffffffffffffffffffffffffffffff1673ffffffffffffffffffffffffffffffffffffffff168152602001908152602001600020819055506118b9826000808673ffffffffffffffffffffffffffffffffffffffff1673ffffffffffffffffffffffffffffffffffffffff16815260200190815260200160002054611e2290919063ffffffff16565b6000808573ffffffffffffffffffffffffffffffffffffffff1673ffffffffffffffffffffffffffffffffffffffff168152602001908152602001600020819055508273ffffffffffffffffffffffffffffffffffffffff163373ffffffffffffffffffffffffffffffffffffffff167fddf252ad1be2c89b69c2b068fc378daa952ba7f163c4a11628f55a4df523b3ef846040518082815260200191505060405180910390a36001905092915050565b611974828261196a565b5050565b6000611a0982600260003373ffffffffffffffffffffffffffffffffffffffff1673ffffffffffffffffffffffffffffffffffffffff16815260200190815260200160002060008673ffffffffffffffffffffffffffffffffffffffff1673ffffffffffffffffffffffffffffffffffffffff16815260200190815260200160002054611e2290919063ffffffff16565b600260003373ffffffffffffffffffffffffffffffffffffffff1673ffffffffffffffffffffffffffffffffffffffff16815260200190815260200160002060008573ffffffffffffffffffffffffffffffffffffffff1673ffffffffffffffffffffffffffffffffffffffff168152602001908152602001600020819055508273ffffffffffffffffffffffffffffffffffffffff163373ffffffffffffffffffffffffffffffffffffffff167f8c5be1e5ebec7d5bd14f71427d1e84f3dd0314c0f7b2291e5b200ac8c7c3b925600260003373ffffffffffffffffffffffffffffffffffffffff1673ffffffffffffffffffffffffffffffffffffffff16815260200190815260200160002060008773ffffffffffffffffffffffffffffffffffffffff1673ffffffffffffffffffffffffffffffffffffffff168152602001908152602001600020546040518082815260200191505060405180910390a36001905092915050565b6000600a80549050905090565b6000600260008473ffffffffffffffffffffffffffffffffffffffff1673ffffffffffffffffffffffffffffffffffffffff16815260200190815260200160002060008373ffffffffffffffffffffffffffffffffffffffff1673ffffffffffffffffffffffffffffffffffffffff16815260200190815260200160002054905092915050565b611c128183610fe9565b505050565b6000818330611c24611f3a565b808473ffffffffffffffffffffffffffffffffffffffff1673ffffffffffffffffffffffffffffffffffffffff1681526020018381526020018273ffffffffffffffffffffffffffffffffffffffff1673ffffffffffffffffffffffffffffffffffffffff1681526020019350505050604051809103906000f080158015611cb0573d6000803e3d6000fd5b509050600a8190806001815401808255809150509060018203906000526020600020016000909192909190916101000a81548173ffffffffffffffffffffffffffffffffffffffff021916908373ffffffffffffffffffffffffffffffffffffffff16021790555050826000808473ffffffffffffffffffffffffffffffffffffffff1673ffffffffffffffffffffffffffffffffffffffff16815260200190815260200160002054036000808473ffffffffffffffffffffffffffffffffffffffff1673ffffffffffffffffffffffffffffffffffffffff16815260200190815260200160002081905550505050565b600360009054906101000a900473ffffffffffffffffffffffffffffffffffffffff1673ffffffffffffffffffffffffffffffffffffffff163373ffffffffffffffffffffffffffffffffffffffff16141515611dfd57600080fd5b611e0681611e3e565b50565b6000828211151515611e1757fe5b818303905092915050565b60008183019050828110151515611e3557fe5b80905092915050565b600073ffffffffffffffffffffffffffffffffffffffff168173ffffffffffffffffffffffffffffffffffffffff1614151515611e7a57600080fd5b8073ffffffffffffffffffffffffffffffffffffffff16600360009054906101000a900473ffffffffffffffffffffffffffffffffffffffff1673ffffffffffffffffffffffffffffffffffffffff167f8be0079c531659141344cd1fd0a4f28419497f9722a3daafe3b4186f6b6457e060405160405180910390a380600360006101000a81548173ffffffffffffffffffffffffffffffffffffffff021916908373ffffffffffffffffffffffffffffffffffffffff16021790555050565b60405161031080611f4b833901905600608060405234801561001057600080fd5b50604051606080610310833981018060405281019080805190602001909291908051906020019092919080519060200190929190505050826000806101000a81548173ffffffffffffffffffffffffffffffffffffffff021916908373ffffffffffffffffffffffffffffffffffffffff1602179055508160018190555080600260006101000a81548173ffffffffffffffffffffffffffffffffffffffff021916908373ffffffffffffffffffffffffffffffffffffffff16021790555033600460006101000a81548173ffffffffffffffffffffffffffffffffffffffff021916908373ffffffffffffffffffffffffffffffffffffffff1602179055505050506101ee806101226000396000f300608060405260043610610041576000357c0100000000000000000000000000000000000000000000000000000000900463ffffffff168063c062dc5f14610046575b600080fd5b34801561005257600080fd5b5061005b61005d565b005b600260009054906101000a900473ffffffffffffffffffffffffffffffffffffffff16600360006101000a81548173ffffffffffffffffffffffffffffffffffffffff021916908373ffffffffffffffffffffffffffffffffffffffff160217905550600360009054906101000a900473ffffffffffffffffffffffffffffffffffffffff1673ffffffffffffffffffffffffffffffffffffffff1663b7760c8f6001546000809054906101000a900473ffffffffffffffffffffffffffffffffffffffff166040518363ffffffff167c0100000000000000000000000000000000000000000000000000000000028152600401808381526020018273ffffffffffffffffffffffffffffffffffffffff1673ffffffffffffffffffffffffffffffffffffffff16815260200192505050600060405180830381600087803b1580156101a857600080fd5b505af11580156101bc573d6000803e3d6000fd5b505050505600a165627a7a72305820dcc81698ee14bcae100d48fdd44208c819db21bf428ca1dba11f693a9706f3cc0029a165627a7a72305820fc35b06f0d21d508ecaa2d28f677130cf1ecf2249b0cddeb5e8b7ffd2703e7a60029",
  "source": "pragma solidity ^0.4.24;\r\n\r\nimport \"openzeppelin-solidity/contracts/token/ERC20/MintableToken.sol\";\r\ncontract FEDToken is MintableToken {\r\n    string public name = \"FEDToken\";\r\n    string public symbol = \"FED\";\r\n    uint8 public decimals = 2;\r\n    uint public INITIAL_SUPPLY = 500000000;\r\n    //status of how much money accounts want to put as bonds\r\n    uint public price=100;\r\n    bool public needMint=false;\r\n    BOND[] bonds;\r\n    //get price and compare it to dollar value\r\n    constructor() public {\r\n        totalSupply_ = INITIAL_SUPPLY;\r\n        balances[msg.sender] = INITIAL_SUPPLY;\r\n    }\r\n    function setPrice(uint _newprice) public{\r\n        //used in testing to manipulate the FEDToken\r\n        price = _newprice;\r\n    }\r\n    \r\n    //call this function first when value of FEDToken needs to be decreased\r\n    function releaseBond(uint _numberOfBonds) public{\r\n        require(_numberOfBonds > 0);\r\n        require(bonds.length != 0);\r\n        for(uint i = 0 ; i<_numberOfBonds; i++) {\r\n            bonds[i].releaseAmount();\r\n            delete bonds[i];\r\n        }\r\n\r\n    }\r\n    //call this function if release bonds can't\r\n    function mintToDecrease(uint _amount,address _to) public {\r\n        mint(_to,_amount); //mint requires that the owner is calling it\r\n\r\n    }\r\n    //called when value of FEDToken needs to be increased\r\n    function addBond(uint _amount, address _bondholder) public{\r\n        BOND bond = new BOND(_bondholder,_amount,address(this));\r\n        bonds.push(bond);\r\n        balances[_bondholder] = balances[_bondholder] - _amount;\r\n\r\n    }\r\n    function getBondLength() public view returns(uint){\r\n        return bonds.length;\r\n    }\r\n    function transfer(uint _amount, address _address) public{\r\n        transfer(_amount, _address);\r\n\r\n    }\r\n\r\n}\r\ncontract BOND {\r\n    address bondHolder;\r\n    uint amount;\r\n    address fedTokenAddress;\r\n    FEDToken Fed;\r\n    address owner;\r\n    constructor(address _bondHolder, uint _amount,address _fedToken) public{\r\n        bondHolder = _bondHolder;\r\n        amount = _amount;\r\n        fedTokenAddress = _fedToken;\r\n        owner = msg.sender;\r\n\r\n    }\r\n    function releaseAmount() public {\r\n        Fed = FEDToken(fedTokenAddress);\r\n        Fed.transfer(amount,bondHolder);\r\n    }\r\n\r\n}",
  "sourcePath": "C:\\dev\\FedToken\\contracts\\fedtoken.sol",
  "compiler": {
    "name": "solc",
    "version": "0.4.24+commit.e67f0147.Emscripten.clang"
  },
  "schemaVersion": "2.0.1",
  "updatedAt": "2018-08-31T23:10:19.362Z"
}